{"contracts/ExamRecords.sol":{"ExamRecords":{"abi":[{"anonymous":false,"inputs":[{"indexed":true,"internalType":"uint256","name":"userId","type":"uint256"},{"indexed":true,"internalType":"uint256","name":"examId","type":"uint256"},{"indexed":false,"internalType":"string","name":"scoreHash","type":"string"},{"indexed":false,"internalType":"uint256","name":"timestamp","type":"uint256"}],"name":"RecordAdded","type":"event"},{"inputs":[{"internalType":"uint256","name":"_userId","type":"uint256"},{"internalType":"uint256","name":"_examId","type":"uint256"},{"internalType":"string","name":"_scoreHash","type":"string"}],"name":"addRecord","outputs":[],"stateMutability":"nonpayable","type":"function"},{"inputs":[{"internalType":"uint256","name":"","type":"uint256"},{"internalType":"uint256","name":"","type":"uint256"}],"name":"examRecords","outputs":[{"internalType":"uint256","name":"userId","type":"uint256"},{"internalType":"uint256","name":"examId","type":"uint256"},{"internalType":"string","name":"scoreHash","type":"string"},{"internalType":"uint256","name":"timestamp","type":"uint256"}],"stateMutability":"view","type":"function"}],"evm":{"bytecode":{"linkReferences":{},"object":"608060405234801561001057600080fd5b50610894806100206000396000f3fe608060405234801561001057600080fd5b50600436106100365760003560e01c80638959ed2d1461003b578063f7daaef914610057575b600080fd5b610055600480360381019061005091906103c7565b61008a565b005b610071600480360381019061006c9190610436565b610162565b6040516100819493929190610504565b60405180910390f35b6000604051806080016040528085815260200184815260200183815260200142815250905060008084815260200190815260200160002081908060018154018082558091505060019003906000526020600020906004020160009091909190915060008201518160000155602082015181600101556040820151816002019081610114919061075c565b5060608201518160030155505082847f6bc51178b611629f78d23692ac64c6d6f1b653e50bf57ff4f74d83d86521db6c844260405161015492919061082e565b60405180910390a350505050565b6000602052816000526040600020818154811061017e57600080fd5b9060005260206000209060040201600091509150508060000154908060010154908060020180546101ae9061057f565b80601f01602080910402602001604051908101604052809291908181526020018280546101da9061057f565b80156102275780601f106101fc57610100808354040283529160200191610227565b820191906000526020600020905b81548152906001019060200180831161020a57829003601f168201915b5050505050908060030154905084565b6000604051905090565b600080fd5b600080fd5b6000819050919050565b61025e8161024b565b811461026957600080fd5b50565b60008135905061027b81610255565b92915050565b600080fd5b600080fd5b6000601f19601f8301169050919050565b7f4e487b7100000000000000000000000000000000000000000000000000000000600052604160045260246000fd5b6102d48261028b565b810181811067ffffffffffffffff821117156102f3576102f261029c565b5b80604052505050565b6000610306610237565b905061031282826102cb565b919050565b600067ffffffffffffffff8211156103325761033161029c565b5b61033b8261028b565b9050602081019050919050565b82818337600083830152505050565b600061036a61036584610317565b6102fc565b90508281526020810184848401111561038657610385610286565b5b610391848285610348565b509392505050565b600082601f8301126103ae576103ad610281565b5b81356103be848260208601610357565b91505092915050565b6000806000606084860312156103e0576103df610241565b5b60006103ee8682870161026c565b93505060206103ff8682870161026c565b925050604084013567ffffffffffffffff8111156104205761041f610246565b5b61042c86828701610399565b9150509250925092565b6000806040838503121561044d5761044c610241565b5b600061045b8582860161026c565b925050602061046c8582860161026c565b9150509250929050565b61047f8161024b565b82525050565b600081519050919050565b600082825260208201905092915050565b60005b838110156104bf5780820151818401526020810190506104a4565b60008484015250505050565b60006104d682610485565b6104e08185610490565b93506104f08185602086016104a1565b6104f98161028b565b840191505092915050565b60006080820190506105196000830187610476565b6105266020830186610476565b818103604083015261053881856104cb565b90506105476060830184610476565b95945050505050565b7f4e487b7100000000000000000000000000000000000000000000000000000000600052602260045260246000fd5b6000600282049050600182168061059757607f821691505b6020821081036105aa576105a9610550565b5b50919050565b60008190508160005260206000209050919050565b60006020601f8301049050919050565b600082821b905092915050565b6000600883026106127fffffffffffffffffffffffffffffffffffffffffffffffffffffffffffffffff826105d5565b61061c86836105d5565b95508019841693508086168417925050509392505050565b6000819050919050565b600061065961065461064f8461024b565b610634565b61024b565b9050919050565b6000819050919050565b6106738361063e565b61068761067f82610660565b8484546105e2565b825550505050565b600090565b61069c61068f565b6106a781848461066a565b505050565b5b818110156106cb576106c0600082610694565b6001810190506106ad565b5050565b601f821115610710576106e1816105b0565b6106ea846105c5565b810160208510156106f9578190505b61070d610705856105c5565b8301826106ac565b50505b505050565b600082821c905092915050565b600061073360001984600802610715565b1980831691505092915050565b600061074c8383610722565b9150826002028217905092915050565b61076582610485565b67ffffffffffffffff81111561077e5761077d61029c565b5b610788825461057f565b6107938282856106cf565b600060209050601f8311600181146107c657600084156107b4578287015190505b6107be8582610740565b865550610826565b601f1984166107d4866105b0565b60005b828110156107fc578489015182556001820191506020850194506020810190506107d7565b868310156108195784890151610815601f891682610722565b8355505b6001600288020188555050505b505050505050565b6000604082019050818103600083015261084881856104cb565b90506108576020830184610476565b939250505056fea2646970667358221220801acdba996eadde741f9bb293abf8c8c7ca5634e2585383953d5e17f5b7b5d764736f6c63430008140033","opcodes":"PUSH1 0x80 PUSH1 0x40 MSTORE CALLVALUE DUP1 ISZERO PUSH2 0x10 JUMPI PUSH1 0x0 DUP1 REVERT JUMPDEST POP PUSH2 0x894 DUP1 PUSH2 0x20 PUSH1 0x0 CODECOPY PUSH1 0x0 RETURN INVALID PUSH1 0x80 PUSH1 0x40 MSTORE CALLVALUE DUP1 ISZERO PUSH2 0x10 JUMPI PUSH1 0x0 DUP1 REVERT JUMPDEST POP PUSH1 0x4 CALLDATASIZE LT PUSH2 0x36 JUMPI PUSH1 0x0 CALLDATALOAD PUSH1 0xE0 SHR DUP1 PUSH4 0x8959ED2D EQ PUSH2 0x3B JUMPI DUP1 PUSH4 0xF7DAAEF9 EQ PUSH2 0x57 JUMPI JUMPDEST PUSH1 0x0 DUP1 REVERT JUMPDEST PUSH2 0x55 PUSH1 0x4 DUP1 CALLDATASIZE SUB DUP2 ADD SWAP1 PUSH2 0x50 SWAP2 SWAP1 PUSH2 0x3C7 JUMP JUMPDEST PUSH2 0x8A JUMP JUMPDEST STOP JUMPDEST PUSH2 0x71 PUSH1 0x4 DUP1 CALLDATASIZE SUB DUP2 ADD SWAP1 PUSH2 0x6C SWAP2 SWAP1 PUSH2 0x436 JUMP JUMPDEST PUSH2 0x162 JUMP JUMPDEST PUSH1 0x40 MLOAD PUSH2 0x81 SWAP5 SWAP4 SWAP3 SWAP2 SWAP1 PUSH2 0x504 JUMP JUMPDEST PUSH1 0x40 MLOAD DUP1 SWAP2 SUB SWAP1 RETURN JUMPDEST PUSH1 0x0 PUSH1 0x40 MLOAD DUP1 PUSH1 0x80 ADD PUSH1 0x40 MSTORE DUP1 DUP6 DUP2 MSTORE PUSH1 0x20 ADD DUP5 DUP2 MSTORE PUSH1 0x20 ADD DUP4 DUP2 MSTORE PUSH1 0x20 ADD TIMESTAMP DUP2 MSTORE POP SWAP1 POP PUSH1 0x0 DUP1 DUP5 DUP2 MSTORE PUSH1 0x20 ADD SWAP1 DUP2 MSTORE PUSH1 0x20 ADD PUSH1 0x0 KECCAK256 DUP2 SWAP1 DUP1 PUSH1 0x1 DUP2 SLOAD ADD DUP1 DUP3 SSTORE DUP1 SWAP2 POP POP PUSH1 0x1 SWAP1 SUB SWAP1 PUSH1 0x0 MSTORE PUSH1 0x20 PUSH1 0x0 KECCAK256 SWAP1 PUSH1 0x4 MUL ADD PUSH1 0x0 SWAP1 SWAP2 SWAP1 SWAP2 SWAP1 SWAP2 POP PUSH1 0x0 DUP3 ADD MLOAD DUP2 PUSH1 0x0 ADD SSTORE PUSH1 0x20 DUP3 ADD MLOAD DUP2 PUSH1 0x1 ADD SSTORE PUSH1 0x40 DUP3 ADD MLOAD DUP2 PUSH1 0x2 ADD SWAP1 DUP2 PUSH2 0x114 SWAP2 SWAP1 PUSH2 0x75C JUMP JUMPDEST POP PUSH1 0x60 DUP3 ADD MLOAD DUP2 PUSH1 0x3 ADD SSTORE POP POP DUP3 DUP5 PUSH32 0x6BC51178B611629F78D23692AC64C6D6F1B653E50BF57FF4F74D83D86521DB6C DUP5 TIMESTAMP PUSH1 0x40 MLOAD PUSH2 0x154 SWAP3 SWAP2 SWAP1 PUSH2 0x82E JUMP JUMPDEST PUSH1 0x40 MLOAD DUP1 SWAP2 SUB SWAP1 LOG3 POP POP POP POP JUMP JUMPDEST PUSH1 0x0 PUSH1 0x20 MSTORE DUP2 PUSH1 0x0 MSTORE PUSH1 0x40 PUSH1 0x0 KECCAK256 DUP2 DUP2 SLOAD DUP2 LT PUSH2 0x17E JUMPI PUSH1 0x0 DUP1 REVERT JUMPDEST SWAP1 PUSH1 0x0 MSTORE PUSH1 0x20 PUSH1 0x0 KECCAK256 SWAP1 PUSH1 0x4 MUL ADD PUSH1 0x0 SWAP2 POP SWAP2 POP POP DUP1 PUSH1 0x0 ADD SLOAD SWAP1 DUP1 PUSH1 0x1 ADD SLOAD SWAP1 DUP1 PUSH1 0x2 ADD DUP1 SLOAD PUSH2 0x1AE SWAP1 PUSH2 0x57F JUMP JUMPDEST DUP1 PUSH1 0x1F ADD PUSH1 0x20 DUP1 SWAP2 DIV MUL PUSH1 0x20 ADD PUSH1 0x40 MLOAD SWAP1 DUP2 ADD PUSH1 0x40 MSTORE DUP1 SWAP3 SWAP2 SWAP1 DUP2 DUP2 MSTORE PUSH1 0x20 ADD DUP3 DUP1 SLOAD PUSH2 0x1DA SWAP1 PUSH2 0x57F JUMP JUMPDEST DUP1 ISZERO PUSH2 0x227 JUMPI DUP1 PUSH1 0x1F LT PUSH2 0x1FC JUMPI PUSH2 0x100 DUP1 DUP4 SLOAD DIV MUL DUP4 MSTORE SWAP2 PUSH1 0x20 ADD SWAP2 PUSH2 0x227 JUMP JUMPDEST DUP3 ADD SWAP2 SWAP1 PUSH1 0x0 MSTORE PUSH1 0x20 PUSH1 0x0 KECCAK256 SWAP1 JUMPDEST DUP2 SLOAD DUP2 MSTORE SWAP1 PUSH1 0x1 ADD SWAP1 PUSH1 0x20 ADD DUP1 DUP4 GT PUSH2 0x20A JUMPI DUP3 SWAP1 SUB PUSH1 0x1F AND DUP3 ADD SWAP2 JUMPDEST POP POP POP POP POP SWAP1 DUP1 PUSH1 0x3 ADD SLOAD SWAP1 POP DUP5 JUMP JUMPDEST PUSH1 0x0 PUSH1 0x40 MLOAD SWAP1 POP SWAP1 JUMP JUMPDEST PUSH1 0x0 DUP1 REVERT JUMPDEST PUSH1 0x0 DUP1 REVERT JUMPDEST PUSH1 0x0 DUP2 SWAP1 POP SWAP2 SWAP1 POP JUMP JUMPDEST PUSH2 0x25E DUP2 PUSH2 0x24B JUMP JUMPDEST DUP2 EQ PUSH2 0x269 JUMPI PUSH1 0x0 DUP1 REVERT JUMPDEST POP JUMP JUMPDEST PUSH1 0x0 DUP2 CALLDATALOAD SWAP1 POP PUSH2 0x27B DUP2 PUSH2 0x255 JUMP JUMPDEST SWAP3 SWAP2 POP POP JUMP JUMPDEST PUSH1 0x0 DUP1 REVERT JUMPDEST PUSH1 0x0 DUP1 REVERT JUMPDEST PUSH1 0x0 PUSH1 0x1F NOT PUSH1 0x1F DUP4 ADD AND SWAP1 POP SWAP2 SWAP1 POP JUMP JUMPDEST PUSH32 0x4E487B7100000000000000000000000000000000000000000000000000000000 PUSH1 0x0 MSTORE PUSH1 0x41 PUSH1 0x4 MSTORE PUSH1 0x24 PUSH1 0x0 REVERT JUMPDEST PUSH2 0x2D4 DUP3 PUSH2 0x28B JUMP JUMPDEST DUP2 ADD DUP2 DUP2 LT PUSH8 0xFFFFFFFFFFFFFFFF DUP3 GT OR ISZERO PUSH2 0x2F3 JUMPI PUSH2 0x2F2 PUSH2 0x29C JUMP JUMPDEST JUMPDEST DUP1 PUSH1 0x40 MSTORE POP POP POP JUMP JUMPDEST PUSH1 0x0 PUSH2 0x306 PUSH2 0x237 JUMP JUMPDEST SWAP1 POP PUSH2 0x312 DUP3 DUP3 PUSH2 0x2CB JUMP JUMPDEST SWAP2 SWAP1 POP JUMP JUMPDEST PUSH1 0x0 PUSH8 0xFFFFFFFFFFFFFFFF DUP3 GT ISZERO PUSH2 0x332 JUMPI PUSH2 0x331 PUSH2 0x29C JUMP JUMPDEST JUMPDEST PUSH2 0x33B DUP3 PUSH2 0x28B JUMP JUMPDEST SWAP1 POP PUSH1 0x20 DUP2 ADD SWAP1 POP SWAP2 SWAP1 POP JUMP JUMPDEST DUP3 DUP2 DUP4 CALLDATACOPY PUSH1 0x0 DUP4 DUP4 ADD MSTORE POP POP POP JUMP JUMPDEST PUSH1 0x0 PUSH2 0x36A PUSH2 0x365 DUP5 PUSH2 0x317 JUMP JUMPDEST PUSH2 0x2FC JUMP JUMPDEST SWAP1 POP DUP3 DUP2 MSTORE PUSH1 0x20 DUP2 ADD DUP5 DUP5 DUP5 ADD GT ISZERO PUSH2 0x386 JUMPI PUSH2 0x385 PUSH2 0x286 JUMP JUMPDEST JUMPDEST PUSH2 0x391 DUP5 DUP3 DUP6 PUSH2 0x348 JUMP JUMPDEST POP SWAP4 SWAP3 POP POP POP JUMP JUMPDEST PUSH1 0x0 DUP3 PUSH1 0x1F DUP4 ADD SLT PUSH2 0x3AE JUMPI PUSH2 0x3AD PUSH2 0x281 JUMP JUMPDEST JUMPDEST DUP2 CALLDATALOAD PUSH2 0x3BE DUP5 DUP3 PUSH1 0x20 DUP7 ADD PUSH2 0x357 JUMP JUMPDEST SWAP2 POP POP SWAP3 SWAP2 POP POP JUMP JUMPDEST PUSH1 0x0 DUP1 PUSH1 0x0 PUSH1 0x60 DUP5 DUP7 SUB SLT ISZERO PUSH2 0x3E0 JUMPI PUSH2 0x3DF PUSH2 0x241 JUMP JUMPDEST JUMPDEST PUSH1 0x0 PUSH2 0x3EE DUP7 DUP3 DUP8 ADD PUSH2 0x26C JUMP JUMPDEST SWAP4 POP POP PUSH1 0x20 PUSH2 0x3FF DUP7 DUP3 DUP8 ADD PUSH2 0x26C JUMP JUMPDEST SWAP3 POP POP PUSH1 0x40 DUP5 ADD CALLDATALOAD PUSH8 0xFFFFFFFFFFFFFFFF DUP2 GT ISZERO PUSH2 0x420 JUMPI PUSH2 0x41F PUSH2 0x246 JUMP JUMPDEST JUMPDEST PUSH2 0x42C DUP7 DUP3 DUP8 ADD PUSH2 0x399 JUMP JUMPDEST SWAP2 POP POP SWAP3 POP SWAP3 POP SWAP3 JUMP JUMPDEST PUSH1 0x0 DUP1 PUSH1 0x40 DUP4 DUP6 SUB SLT ISZERO PUSH2 0x44D JUMPI PUSH2 0x44C PUSH2 0x241 JUMP JUMPDEST JUMPDEST PUSH1 0x0 PUSH2 0x45B DUP6 DUP3 DUP7 ADD PUSH2 0x26C JUMP JUMPDEST SWAP3 POP POP PUSH1 0x20 PUSH2 0x46C DUP6 DUP3 DUP7 ADD PUSH2 0x26C JUMP JUMPDEST SWAP2 POP POP SWAP3 POP SWAP3 SWAP1 POP JUMP JUMPDEST PUSH2 0x47F DUP2 PUSH2 0x24B JUMP JUMPDEST DUP3 MSTORE POP POP JUMP JUMPDEST PUSH1 0x0 DUP2 MLOAD SWAP1 POP SWAP2 SWAP1 POP JUMP JUMPDEST PUSH1 0x0 DUP3 DUP3 MSTORE PUSH1 0x20 DUP3 ADD SWAP1 POP SWAP3 SWAP2 POP POP JUMP JUMPDEST PUSH1 0x0 JUMPDEST DUP4 DUP2 LT ISZERO PUSH2 0x4BF JUMPI DUP1 DUP3 ADD MLOAD DUP2 DUP5 ADD MSTORE PUSH1 0x20 DUP2 ADD SWAP1 POP PUSH2 0x4A4 JUMP JUMPDEST PUSH1 0x0 DUP5 DUP5 ADD MSTORE POP POP POP POP JUMP JUMPDEST PUSH1 0x0 PUSH2 0x4D6 DUP3 PUSH2 0x485 JUMP JUMPDEST PUSH2 0x4E0 DUP2 DUP6 PUSH2 0x490 JUMP JUMPDEST SWAP4 POP PUSH2 0x4F0 DUP2 DUP6 PUSH1 0x20 DUP7 ADD PUSH2 0x4A1 JUMP JUMPDEST PUSH2 0x4F9 DUP2 PUSH2 0x28B JUMP JUMPDEST DUP5 ADD SWAP2 POP POP SWAP3 SWAP2 POP POP JUMP JUMPDEST PUSH1 0x0 PUSH1 0x80 DUP3 ADD SWAP1 POP PUSH2 0x519 PUSH1 0x0 DUP4 ADD DUP8 PUSH2 0x476 JUMP JUMPDEST PUSH2 0x526 PUSH1 0x20 DUP4 ADD DUP7 PUSH2 0x476 JUMP JUMPDEST DUP2 DUP2 SUB PUSH1 0x40 DUP4 ADD MSTORE PUSH2 0x538 DUP2 DUP6 PUSH2 0x4CB JUMP JUMPDEST SWAP1 POP PUSH2 0x547 PUSH1 0x60 DUP4 ADD DUP5 PUSH2 0x476 JUMP JUMPDEST SWAP6 SWAP5 POP POP POP POP POP JUMP JUMPDEST PUSH32 0x4E487B7100000000000000000000000000000000000000000000000000000000 PUSH1 0x0 MSTORE PUSH1 0x22 PUSH1 0x4 MSTORE PUSH1 0x24 PUSH1 0x0 REVERT JUMPDEST PUSH1 0x0 PUSH1 0x2 DUP3 DIV SWAP1 POP PUSH1 0x1 DUP3 AND DUP1 PUSH2 0x597 JUMPI PUSH1 0x7F DUP3 AND SWAP2 POP JUMPDEST PUSH1 0x20 DUP3 LT DUP2 SUB PUSH2 0x5AA JUMPI PUSH2 0x5A9 PUSH2 0x550 JUMP JUMPDEST JUMPDEST POP SWAP2 SWAP1 POP JUMP JUMPDEST PUSH1 0x0 DUP2 SWAP1 POP DUP2 PUSH1 0x0 MSTORE PUSH1 0x20 PUSH1 0x0 KECCAK256 SWAP1 POP SWAP2 SWAP1 POP JUMP JUMPDEST PUSH1 0x0 PUSH1 0x20 PUSH1 0x1F DUP4 ADD DIV SWAP1 POP SWAP2 SWAP1 POP JUMP JUMPDEST PUSH1 0x0 DUP3 DUP3 SHL SWAP1 POP SWAP3 SWAP2 POP POP JUMP JUMPDEST PUSH1 0x0 PUSH1 0x8 DUP4 MUL PUSH2 0x612 PUSH32 0xFFFFFFFFFFFFFFFFFFFFFFFFFFFFFFFFFFFFFFFFFFFFFFFFFFFFFFFFFFFFFFFF DUP3 PUSH2 0x5D5 JUMP JUMPDEST PUSH2 0x61C DUP7 DUP4 PUSH2 0x5D5 JUMP JUMPDEST SWAP6 POP DUP1 NOT DUP5 AND SWAP4 POP DUP1 DUP7 AND DUP5 OR SWAP3 POP POP POP SWAP4 SWAP3 POP POP POP JUMP JUMPDEST PUSH1 0x0 DUP2 SWAP1 POP SWAP2 SWAP1 POP JUMP JUMPDEST PUSH1 0x0 PUSH2 0x659 PUSH2 0x654 PUSH2 0x64F DUP5 PUSH2 0x24B JUMP JUMPDEST PUSH2 0x634 JUMP JUMPDEST PUSH2 0x24B JUMP JUMPDEST SWAP1 POP SWAP2 SWAP1 POP JUMP JUMPDEST PUSH1 0x0 DUP2 SWAP1 POP SWAP2 SWAP1 POP JUMP JUMPDEST PUSH2 0x673 DUP4 PUSH2 0x63E JUMP JUMPDEST PUSH2 0x687 PUSH2 0x67F DUP3 PUSH2 0x660 JUMP JUMPDEST DUP5 DUP5 SLOAD PUSH2 0x5E2 JUMP JUMPDEST DUP3 SSTORE POP POP POP POP JUMP JUMPDEST PUSH1 0x0 SWAP1 JUMP JUMPDEST PUSH2 0x69C PUSH2 0x68F JUMP JUMPDEST PUSH2 0x6A7 DUP2 DUP5 DUP5 PUSH2 0x66A JUMP JUMPDEST POP POP POP JUMP JUMPDEST JUMPDEST DUP2 DUP2 LT ISZERO PUSH2 0x6CB JUMPI PUSH2 0x6C0 PUSH1 0x0 DUP3 PUSH2 0x694 JUMP JUMPDEST PUSH1 0x1 DUP2 ADD SWAP1 POP PUSH2 0x6AD JUMP JUMPDEST POP POP JUMP JUMPDEST PUSH1 0x1F DUP3 GT ISZERO PUSH2 0x710 JUMPI PUSH2 0x6E1 DUP2 PUSH2 0x5B0 JUMP JUMPDEST PUSH2 0x6EA DUP5 PUSH2 0x5C5 JUMP JUMPDEST DUP2 ADD PUSH1 0x20 DUP6 LT ISZERO PUSH2 0x6F9 JUMPI DUP2 SWAP1 POP JUMPDEST PUSH2 0x70D PUSH2 0x705 DUP6 PUSH2 0x5C5 JUMP JUMPDEST DUP4 ADD DUP3 PUSH2 0x6AC JUMP JUMPDEST POP POP JUMPDEST POP POP POP JUMP JUMPDEST PUSH1 0x0 DUP3 DUP3 SHR SWAP1 POP SWAP3 SWAP2 POP POP JUMP JUMPDEST PUSH1 0x0 PUSH2 0x733 PUSH1 0x0 NOT DUP5 PUSH1 0x8 MUL PUSH2 0x715 JUMP JUMPDEST NOT DUP1 DUP4 AND SWAP2 POP POP SWAP3 SWAP2 POP POP JUMP JUMPDEST PUSH1 0x0 PUSH2 0x74C DUP4 DUP4 PUSH2 0x722 JUMP JUMPDEST SWAP2 POP DUP3 PUSH1 0x2 MUL DUP3 OR SWAP1 POP SWAP3 SWAP2 POP POP JUMP JUMPDEST PUSH2 0x765 DUP3 PUSH2 0x485 JUMP JUMPDEST PUSH8 0xFFFFFFFFFFFFFFFF DUP2 GT ISZERO PUSH2 0x77E JUMPI PUSH2 0x77D PUSH2 0x29C JUMP JUMPDEST JUMPDEST PUSH2 0x788 DUP3 SLOAD PUSH2 0x57F JUMP JUMPDEST PUSH2 0x793 DUP3 DUP3 DUP6 PUSH2 0x6CF JUMP JUMPDEST PUSH1 0x0 PUSH1 0x20 SWAP1 POP PUSH1 0x1F DUP4 GT PUSH1 0x1 DUP2 EQ PUSH2 0x7C6 JUMPI PUSH1 0x0 DUP5 ISZERO PUSH2 0x7B4 JUMPI DUP3 DUP8 ADD MLOAD SWAP1 POP JUMPDEST PUSH2 0x7BE DUP6 DUP3 PUSH2 0x740 JUMP JUMPDEST DUP7 SSTORE POP PUSH2 0x826 JUMP JUMPDEST PUSH1 0x1F NOT DUP5 AND PUSH2 0x7D4 DUP7 PUSH2 0x5B0 JUMP JUMPDEST PUSH1 0x0 JUMPDEST DUP3 DUP2 LT ISZERO PUSH2 0x7FC JUMPI DUP5 DUP10 ADD MLOAD DUP3 SSTORE PUSH1 0x1 DUP3 ADD SWAP2 POP PUSH1 0x20 DUP6 ADD SWAP5 POP PUSH1 0x20 DUP2 ADD SWAP1 POP PUSH2 0x7D7 JUMP JUMPDEST DUP7 DUP4 LT ISZERO PUSH2 0x819 JUMPI DUP5 DUP10 ADD MLOAD PUSH2 0x815 PUSH1 0x1F DUP10 AND DUP3 PUSH2 0x722 JUMP JUMPDEST DUP4 SSTORE POP JUMPDEST PUSH1 0x1 PUSH1 0x2 DUP9 MUL ADD DUP9 SSTORE POP POP POP JUMPDEST POP POP POP POP POP POP JUMP JUMPDEST PUSH1 0x0 PUSH1 0x40 DUP3 ADD SWAP1 POP DUP2 DUP2 SUB PUSH1 0x0 DUP4 ADD MSTORE PUSH2 0x848 DUP2 DUP6 PUSH2 0x4CB JUMP JUMPDEST SWAP1 POP PUSH2 0x857 PUSH1 0x20 DUP4 ADD DUP5 PUSH2 0x476 JUMP JUMPDEST SWAP4 SWAP3 POP POP POP JUMP INVALID LOG2 PUSH5 0x6970667358 0x22 SLT KECCAK256 DUP1 BYTE 0xCD 0xBA SWAP10 PUSH15 0xADDE741F9BB293ABF8C8C7CA5634E2 PC MSTORE8 DUP4 SWAP6 RETURNDATASIZE 0x5E OR CREATE2 0xB7 0xB5 0xD7 PUSH5 0x736F6C6343 STOP ADDMOD EQ STOP CALLER "},"methodIdentifiers":{"addRecord(uint256,uint256,string)":"8959ed2d","examRecords(uint256,uint256)":"f7daaef9"}}}}}