{
  "_format": "hh-sol-artifact-1",
  "contractName": "ExamRecords",
  "sourceName": "contracts/ExamRecords.sol",
  "abi": [
    {
      "anonymous": false,
      "inputs": [
        {
          "indexed": true,
          "internalType": "uint256",
          "name": "userId",
          "type": "uint256"
        },
        {
          "indexed": true,
          "internalType": "uint256",
          "name": "examId",
          "type": "uint256"
        },
        {
          "indexed": false,
          "internalType": "string",
          "name": "scoreHash",
          "type": "string"
        },
        {
          "indexed": false,
          "internalType": "uint256",
          "name": "timestamp",
          "type": "uint256"
        }
      ],
      "name": "RecordAdded",
      "type": "event"
    },
    {
      "inputs": [
        {
          "internalType": "uint256",
          "name": "_userId",
          "type": "uint256"
        },
        {
          "internalType": "uint256",
          "name": "_examId",
          "type": "uint256"
        },
        {
          "internalType": "string",
          "name": "_scoreHash",
          "type": "string"
        }
      ],
      "name": "addRecord",
      "outputs": [],
      "stateMutability": "nonpayable",
      "type": "function"
    },
    {
      "inputs": [
        {
          "internalType": "uint256",
          "name": "",
          "type": "uint256"
        },
        {
          "internalType": "uint256",
          "name": "",
          "type": "uint256"
        }
      ],
      "name": "examRecords",
      "outputs": [
        {
          "internalType": "uint256",
          "name": "userId",
          "type": "uint256"
        },
        {
          "internalType": "uint256",
          "name": "examId",
          "type": "uint256"
        },
        {
          "internalType": "string",
          "name": "scoreHash",
          "type": "string"
        },
        {
          "internalType": "uint256",
          "name": "timestamp",
          "type": "uint256"
        }
      ],
      "stateMutability": "view",
      "type": "function"
    }
  ],
  "bytecode": "0x608060405234801561001057600080fd5b50610894806100206000396000f3fe608060405234801561001057600080fd5b50600436106100365760003560e01c80638959ed2d1461003b578063f7daaef914610057575b600080fd5b610055600480360381019061005091906103c7565b61008a565b005b610071600480360381019061006c9190610436565b610162565b6040516100819493929190610504565b60405180910390f35b6000604051806080016040528085815260200184815260200183815260200142815250905060008084815260200190815260200160002081908060018154018082558091505060019003906000526020600020906004020160009091909190915060008201518160000155602082015181600101556040820151816002019081610114919061075c565b5060608201518160030155505082847f6bc51178b611629f78d23692ac64c6d6f1b653e50bf57ff4f74d83d86521db6c844260405161015492919061082e565b60405180910390a350505050565b6000602052816000526040600020818154811061017e57600080fd5b9060005260206000209060040201600091509150508060000154908060010154908060020180546101ae9061057f565b80601f01602080910402602001604051908101604052809291908181526020018280546101da9061057f565b80156102275780601f106101fc57610100808354040283529160200191610227565b820191906000526020600020905b81548152906001019060200180831161020a57829003601f168201915b5050505050908060030154905084565b6000604051905090565b600080fd5b600080fd5b6000819050919050565b61025e8161024b565b811461026957600080fd5b50565b60008135905061027b81610255565b92915050565b600080fd5b600080fd5b6000601f19601f8301169050919050565b7f4e487b7100000000000000000000000000000000000000000000000000000000600052604160045260246000fd5b6102d48261028b565b810181811067ffffffffffffffff821117156102f3576102f261029c565b5b80604052505050565b6000610306610237565b905061031282826102cb565b919050565b600067ffffffffffffffff8211156103325761033161029c565b5b61033b8261028b565b9050602081019050919050565b82818337600083830152505050565b600061036a61036584610317565b6102fc565b90508281526020810184848401111561038657610385610286565b5b610391848285610348565b509392505050565b600082601f8301126103ae576103ad610281565b5b81356103be848260208601610357565b91505092915050565b6000806000606084860312156103e0576103df610241565b5b60006103ee8682870161026c565b93505060206103ff8682870161026c565b925050604084013567ffffffffffffffff8111156104205761041f610246565b5b61042c86828701610399565b9150509250925092565b6000806040838503121561044d5761044c610241565b5b600061045b8582860161026c565b925050602061046c8582860161026c565b9150509250929050565b61047f8161024b565b82525050565b600081519050919050565b600082825260208201905092915050565b60005b838110156104bf5780820151818401526020810190506104a4565b60008484015250505050565b60006104d682610485565b6104e08185610490565b93506104f08185602086016104a1565b6104f98161028b565b840191505092915050565b60006080820190506105196000830187610476565b6105266020830186610476565b818103604083015261053881856104cb565b90506105476060830184610476565b95945050505050565b7f4e487b7100000000000000000000000000000000000000000000000000000000600052602260045260246000fd5b6000600282049050600182168061059757607f821691505b6020821081036105aa576105a9610550565b5b50919050565b60008190508160005260206000209050919050565b60006020601f8301049050919050565b600082821b905092915050565b6000600883026106127fffffffffffffffffffffffffffffffffffffffffffffffffffffffffffffffff826105d5565b61061c86836105d5565b95508019841693508086168417925050509392505050565b6000819050919050565b600061065961065461064f8461024b565b610634565b61024b565b9050919050565b6000819050919050565b6106738361063e565b61068761067f82610660565b8484546105e2565b825550505050565b600090565b61069c61068f565b6106a781848461066a565b505050565b5b818110156106cb576106c0600082610694565b6001810190506106ad565b5050565b601f821115610710576106e1816105b0565b6106ea846105c5565b810160208510156106f9578190505b61070d610705856105c5565b8301826106ac565b50505b505050565b600082821c905092915050565b600061073360001984600802610715565b1980831691505092915050565b600061074c8383610722565b9150826002028217905092915050565b61076582610485565b67ffffffffffffffff81111561077e5761077d61029c565b5b610788825461057f565b6107938282856106cf565b600060209050601f8311600181146107c657600084156107b4578287015190505b6107be8582610740565b865550610826565b601f1984166107d4866105b0565b60005b828110156107fc578489015182556001820191506020850194506020810190506107d7565b868310156108195784890151610815601f891682610722565b8355505b6001600288020188555050505b505050505050565b6000604082019050818103600083015261084881856104cb565b90506108576020830184610476565b939250505056fea2646970667358221220801acdba996eadde741f9bb293abf8c8c7ca5634e2585383953d5e17f5b7b5d764736f6c63430008140033",
  "linkReferences": {},
  "deployedLinkReferences": {}
}